{
  "contractName": "helloworl",
  "abi": [
    {
      "constant": true,
      "inputs": [],
      "name": "bal",
      "outputs": [
        {
          "name": "",
          "type": "uint256"
        }
      ],
      "payable": false,
      "stateMutability": "view",
      "type": "function"
    },
    {
      "constant": false,
      "inputs": [],
      "name": "hellowrl",
      "outputs": [],
      "payable": false,
      "stateMutability": "nonpayable",
      "type": "function"
    },
    {
      "constant": false,
      "inputs": [],
      "name": "sayHello",
      "outputs": [
        {
          "name": "",
          "type": "string"
        }
      ],
      "payable": false,
      "stateMutability": "nonpayable",
      "type": "function"
    }
  ],
  "bytecode": "0x6060604052341561000f57600080fd5b6101bb8061001e6000396000f300606060405260043610610057576000357c0100000000000000000000000000000000000000000000000000000000900463ffffffff1680633d79d1c81461005c57806353c8d23214610085578063ef5fb05b1461009a575b600080fd5b341561006757600080fd5b61006f610128565b6040518082815260200191505060405180910390f35b341561009057600080fd5b61009861012e565b005b34156100a557600080fd5b6100ad610138565b6040518080602001828103825283818151815260200191508051906020019080838360005b838110156100ed5780820151818401526020810190506100d2565b50505050905090810190601f16801561011a5780820380516001836020036101000a031916815260200191505b509250505060405180910390f35b60005481565b6064600081905550565b61014061017b565b6040805190810160405280600581526020017f68656c6c6f000000000000000000000000000000000000000000000000000000815250905090565b6020604051908101604052806000815250905600a165627a7a72305820a5d52d9bbe29f1a907e1e7a2e6b897bb2bd0597952af1e080f152551f725d3a00029",
  "source": "pragma solidity ^0.4.17;\r\n\r\ncontract helloworl {\r\n  uint public bal;\r\n    function hellowrl() public\r\n    {\r\n    bal=100;\r\n    }\r\n     function sayHello() public returns(string) {\r\n        return \"hello\";\r\n    }\r\n\r\n  }",
  "sourcePath": "C:\\Users\\jeffin\\Desktop\\eth\\contracts\\helloworl.sol",
  "compiler": {
    "name": "solc",
    "version": "0.4.19+commit.c4cbbb05.Emscripten.clang"
  },
  "schemaVersion": "1.0.1",
  "updatedAt": "2018-02-23T07:21:30.376Z"
}